{
  "_format": "hh-sol-artifact-1",
  "contractName": "NFTCollection",
  "sourceName": "contracts/NFTCollection.sol",
  "abi": [
    {
      "inputs": [
        {
          "internalType": "string",
          "name": "_name",
          "type": "string"
        },
        {
          "internalType": "string",
          "name": "_symbol",
          "type": "string"
        },
        {
          "internalType": "string",
          "name": "_initBaseURI",
          "type": "string"
        },
        {
          "internalType": "string",
          "name": "_initNotRevealedUri",
          "type": "string"
        }
      ],
      "stateMutability": "nonpayable",
      "type": "constructor"
    },
    {
      "anonymous": false,
      "inputs": [
        {
          "indexed": true,
          "internalType": "address",
          "name": "owner",
          "type": "address"
        },
        {
          "indexed": true,
          "internalType": "address",
          "name": "approved",
          "type": "address"
        },
        {
          "indexed": true,
          "internalType": "uint256",
          "name": "tokenId",
          "type": "uint256"
        }
      ],
      "name": "Approval",
      "type": "event"
    },
    {
      "anonymous": false,
      "inputs": [
        {
          "indexed": true,
          "internalType": "address",
          "name": "owner",
          "type": "address"
        },
        {
          "indexed": true,
          "internalType": "address",
          "name": "operator",
          "type": "address"
        },
        {
          "indexed": false,
          "internalType": "bool",
          "name": "approved",
          "type": "bool"
        }
      ],
      "name": "ApprovalForAll",
      "type": "event"
    },
    {
      "anonymous": false,
      "inputs": [
        {
          "indexed": true,
          "internalType": "address",
          "name": "previousOwner",
          "type": "address"
        },
        {
          "indexed": true,
          "internalType": "address",
          "name": "newOwner",
          "type": "address"
        }
      ],
      "name": "OwnershipTransferred",
      "type": "event"
    },
    {
      "anonymous": false,
      "inputs": [
        {
          "indexed": true,
          "internalType": "address",
          "name": "from",
          "type": "address"
        },
        {
          "indexed": true,
          "internalType": "address",
          "name": "to",
          "type": "address"
        },
        {
          "indexed": true,
          "internalType": "uint256",
          "name": "tokenId",
          "type": "uint256"
        }
      ],
      "name": "Transfer",
      "type": "event"
    },
    {
      "inputs": [],
      "name": "MAX_MINT_PER_TX",
      "outputs": [
        {
          "internalType": "uint256",
          "name": "",
          "type": "uint256"
        }
      ],
      "stateMutability": "view",
      "type": "function"
    },
    {
      "inputs": [],
      "name": "MAX_SUPPLY",
      "outputs": [
        {
          "internalType": "uint256",
          "name": "",
          "type": "uint256"
        }
      ],
      "stateMutability": "view",
      "type": "function"
    },
    {
      "inputs": [],
      "name": "_alien",
      "outputs": [],
      "stateMutability": "nonpayable",
      "type": "function"
    },
    {
      "inputs": [],
      "name": "alien",
      "outputs": [
        {
          "internalType": "bool",
          "name": "",
          "type": "bool"
        }
      ],
      "stateMutability": "view",
      "type": "function"
    },
    {
      "inputs": [
        {
          "internalType": "address",
          "name": "to",
          "type": "address"
        },
        {
          "internalType": "uint256",
          "name": "tokenId",
          "type": "uint256"
        }
      ],
      "name": "approve",
      "outputs": [],
      "stateMutability": "nonpayable",
      "type": "function"
    },
    {
      "inputs": [
        {
          "internalType": "address",
          "name": "owner",
          "type": "address"
        }
      ],
      "name": "balanceOf",
      "outputs": [
        {
          "internalType": "uint256",
          "name": "",
          "type": "uint256"
        }
      ],
      "stateMutability": "view",
      "type": "function"
    },
    {
      "inputs": [],
      "name": "baseExtension",
      "outputs": [
        {
          "internalType": "string",
          "name": "",
          "type": "string"
        }
      ],
      "stateMutability": "view",
      "type": "function"
    },
    {
      "inputs": [
        {
          "internalType": "uint256",
          "name": "tokenId",
          "type": "uint256"
        }
      ],
      "name": "burn",
      "outputs": [],
      "stateMutability": "nonpayable",
      "type": "function"
    },
    {
      "inputs": [],
      "name": "cost",
      "outputs": [
        {
          "internalType": "uint256",
          "name": "",
          "type": "uint256"
        }
      ],
      "stateMutability": "view",
      "type": "function"
    },
    {
      "inputs": [
        {
          "internalType": "uint256",
          "name": "tokenId",
          "type": "uint256"
        }
      ],
      "name": "getApproved",
      "outputs": [
        {
          "internalType": "address",
          "name": "",
          "type": "address"
        }
      ],
      "stateMutability": "view",
      "type": "function"
    },
    {
      "inputs": [
        {
          "internalType": "address",
          "name": "owner",
          "type": "address"
        },
        {
          "internalType": "address",
          "name": "operator",
          "type": "address"
        }
      ],
      "name": "isApprovedForAll",
      "outputs": [
        {
          "internalType": "bool",
          "name": "",
          "type": "bool"
        }
      ],
      "stateMutability": "view",
      "type": "function"
    },
    {
      "inputs": [
        {
          "internalType": "uint256",
          "name": "_amount",
          "type": "uint256"
        }
      ],
      "name": "mint",
      "outputs": [],
      "stateMutability": "nonpayable",
      "type": "function"
    },
    {
      "inputs": [],
      "name": "name",
      "outputs": [
        {
          "internalType": "string",
          "name": "",
          "type": "string"
        }
      ],
      "stateMutability": "view",
      "type": "function"
    },
    {
      "inputs": [],
      "name": "notRevealedUri",
      "outputs": [
        {
          "internalType": "string",
          "name": "",
          "type": "string"
        }
      ],
      "stateMutability": "view",
      "type": "function"
    },
    {
      "inputs": [],
      "name": "owner",
      "outputs": [
        {
          "internalType": "address",
          "name": "",
          "type": "address"
        }
      ],
      "stateMutability": "view",
      "type": "function"
    },
    {
      "inputs": [
        {
          "internalType": "uint256",
          "name": "tokenId",
          "type": "uint256"
        }
      ],
      "name": "ownerOf",
      "outputs": [
        {
          "internalType": "address",
          "name": "",
          "type": "address"
        }
      ],
      "stateMutability": "view",
      "type": "function"
    },
    {
      "inputs": [
        {
          "internalType": "bool",
          "name": "_state",
          "type": "bool"
        }
      ],
      "name": "pause",
      "outputs": [],
      "stateMutability": "nonpayable",
      "type": "function"
    },
    {
      "inputs": [],
      "name": "paused",
      "outputs": [
        {
          "internalType": "bool",
          "name": "",
          "type": "bool"
        }
      ],
      "stateMutability": "view",
      "type": "function"
    },
    {
      "inputs": [],
      "name": "renounceOwnership",
      "outputs": [],
      "stateMutability": "nonpayable",
      "type": "function"
    },
    {
      "inputs": [],
      "name": "revealed",
      "outputs": [
        {
          "internalType": "bool",
          "name": "",
          "type": "bool"
        }
      ],
      "stateMutability": "view",
      "type": "function"
    },
    {
      "inputs": [
        {
          "internalType": "address",
          "name": "from",
          "type": "address"
        },
        {
          "internalType": "address",
          "name": "to",
          "type": "address"
        },
        {
          "internalType": "uint256",
          "name": "tokenId",
          "type": "uint256"
        }
      ],
      "name": "safeTransferFrom",
      "outputs": [],
      "stateMutability": "nonpayable",
      "type": "function"
    },
    {
      "inputs": [
        {
          "internalType": "address",
          "name": "from",
          "type": "address"
        },
        {
          "internalType": "address",
          "name": "to",
          "type": "address"
        },
        {
          "internalType": "uint256",
          "name": "tokenId",
          "type": "uint256"
        },
        {
          "internalType": "bytes",
          "name": "_data",
          "type": "bytes"
        }
      ],
      "name": "safeTransferFrom",
      "outputs": [],
      "stateMutability": "nonpayable",
      "type": "function"
    },
    {
      "inputs": [
        {
          "internalType": "address",
          "name": "operator",
          "type": "address"
        },
        {
          "internalType": "bool",
          "name": "approved",
          "type": "bool"
        }
      ],
      "name": "setApprovalForAll",
      "outputs": [],
      "stateMutability": "nonpayable",
      "type": "function"
    },
    {
      "inputs": [
        {
          "internalType": "string",
          "name": "_newBaseExtension",
          "type": "string"
        }
      ],
      "name": "setBaseExtension",
      "outputs": [],
      "stateMutability": "nonpayable",
      "type": "function"
    },
    {
      "inputs": [
        {
          "internalType": "string",
          "name": "_newBaseURI",
          "type": "string"
        }
      ],
      "name": "setBaseURI",
      "outputs": [],
      "stateMutability": "nonpayable",
      "type": "function"
    },
    {
      "inputs": [
        {
          "internalType": "uint256",
          "name": "_newprice",
          "type": "uint256"
        }
      ],
      "name": "setCost",
      "outputs": [],
      "stateMutability": "nonpayable",
      "type": "function"
    },
    {
      "inputs": [
        {
          "internalType": "string",
          "name": "_notRevealedURI",
          "type": "string"
        }
      ],
      "name": "setNotRevealedURI",
      "outputs": [],
      "stateMutability": "nonpayable",
      "type": "function"
    },
    {
      "inputs": [],
      "name": "showboobs",
      "outputs": [],
      "stateMutability": "nonpayable",
      "type": "function"
    },
    {
      "inputs": [
        {
          "internalType": "bytes4",
          "name": "interfaceId",
          "type": "bytes4"
        }
      ],
      "name": "supportsInterface",
      "outputs": [
        {
          "internalType": "bool",
          "name": "",
          "type": "bool"
        }
      ],
      "stateMutability": "view",
      "type": "function"
    },
    {
      "inputs": [],
      "name": "symbol",
      "outputs": [
        {
          "internalType": "string",
          "name": "",
          "type": "string"
        }
      ],
      "stateMutability": "view",
      "type": "function"
    },
    {
      "inputs": [
        {
          "internalType": "uint256",
          "name": "index",
          "type": "uint256"
        }
      ],
      "name": "tokenByIndex",
      "outputs": [
        {
          "internalType": "uint256",
          "name": "",
          "type": "uint256"
        }
      ],
      "stateMutability": "view",
      "type": "function"
    },
    {
      "inputs": [
        {
          "internalType": "address",
          "name": "owner",
          "type": "address"
        },
        {
          "internalType": "uint256",
          "name": "index",
          "type": "uint256"
        }
      ],
      "name": "tokenOfOwnerByIndex",
      "outputs": [
        {
          "internalType": "uint256",
          "name": "",
          "type": "uint256"
        }
      ],
      "stateMutability": "view",
      "type": "function"
    },
    {
      "inputs": [
        {
          "internalType": "uint256",
          "name": "tokenId",
          "type": "uint256"
        }
      ],
      "name": "tokenURI",
      "outputs": [
        {
          "internalType": "string",
          "name": "",
          "type": "string"
        }
      ],
      "stateMutability": "view",
      "type": "function"
    },
    {
      "inputs": [],
      "name": "totalSupply",
      "outputs": [
        {
          "internalType": "uint256",
          "name": "",
          "type": "uint256"
        }
      ],
      "stateMutability": "view",
      "type": "function"
    },
    {
      "inputs": [
        {
          "internalType": "address",
          "name": "from",
          "type": "address"
        },
        {
          "internalType": "address",
          "name": "to",
          "type": "address"
        },
        {
          "internalType": "uint256",
          "name": "tokenId",
          "type": "uint256"
        }
      ],
      "name": "transferFrom",
      "outputs": [],
      "stateMutability": "nonpayable",
      "type": "function"
    },
    {
      "inputs": [
        {
          "internalType": "address",
          "name": "newOwner",
          "type": "address"
        }
      ],
      "name": "transferOwnership",
      "outputs": [],
      "stateMutability": "nonpayable",
      "type": "function"
    }
  ],
  "bytecode": "0x60806040526040518060400160405280600581526020017f2e6a736f6e000000000000000000000000000000000000000000000000000000815250600c908051906020019062000051929190620003b7565b50674563918244f40000600d556066600e556000600f60006101000a81548160ff0219169083151502179055506001600f60016101000a81548160ff021916908315150217905550348015620000a657600080fd5b5060405162004b7b38038062004b7b8339818101604052810190620000cc919062000604565b83838160009080519060200190620000e6929190620003b7565b508060019080519060200190620000ff929190620003b7565b50505062000122620001166200016960201b60201c565b6200017160201b60201c565b62000133826200023760201b60201c565b6200014481620002e260201b60201c565b6001600a60146101000a81548160ff02191690831515021790555050505050620007da565b600033905090565b6000600a60009054906101000a900473ffffffffffffffffffffffffffffffffffffffff16905081600a60006101000a81548173ffffffffffffffffffffffffffffffffffffffff021916908373ffffffffffffffffffffffffffffffffffffffff1602179055508173ffffffffffffffffffffffffffffffffffffffff168173ffffffffffffffffffffffffffffffffffffffff167f8be0079c531659141344cd1fd0a4f28419497f9722a3daafe3b4186f6b6457e060405160405180910390a35050565b620002476200016960201b60201c565b73ffffffffffffffffffffffffffffffffffffffff166200026d6200038d60201b60201c565b73ffffffffffffffffffffffffffffffffffffffff1614620002c6576040517f08c379a0000000000000000000000000000000000000000000000000000000008152600401620002bd9062000753565b60405180910390fd5b80600b9080519060200190620002de929190620003b7565b5050565b620002f26200016960201b60201c565b73ffffffffffffffffffffffffffffffffffffffff16620003186200038d60201b60201c565b73ffffffffffffffffffffffffffffffffffffffff161462000371576040517f08c379a0000000000000000000000000000000000000000000000000000000008152600401620003689062000753565b60405180910390fd5b806010908051906020019062000389929190620003b7565b5050565b6000600a60009054906101000a900473ffffffffffffffffffffffffffffffffffffffff16905090565b828054620003c590620007a4565b90600052602060002090601f016020900481019282620003e9576000855562000435565b82601f106200040457805160ff191683800117855562000435565b8280016001018555821562000435579182015b828111156200043457825182559160200191906001019062000417565b5b50905062000444919062000448565b5090565b5b808211156200046357600081600090555060010162000449565b5090565b6000604051905090565b600080fd5b600080fd5b600080fd5b600080fd5b6000601f19601f8301169050919050565b7f4e487b7100000000000000000000000000000000000000000000000000000000600052604160045260246000fd5b620004d08262000485565b810181811067ffffffffffffffff82111715620004f257620004f162000496565b5b80604052505050565b60006200050762000467565b9050620005158282620004c5565b919050565b600067ffffffffffffffff82111562000538576200053762000496565b5b620005438262000485565b9050602081019050919050565b60005b838110156200057057808201518184015260208101905062000553565b8381111562000580576000848401525b50505050565b60006200059d62000597846200051a565b620004fb565b905082815260208101848484011115620005bc57620005bb62000480565b5b620005c984828562000550565b509392505050565b600082601f830112620005e957620005e86200047b565b5b8151620005fb84826020860162000586565b91505092915050565b6000806000806080858703121562000621576200062062000471565b5b600085015167ffffffffffffffff81111562000642576200064162000476565b5b6200065087828801620005d1565b945050602085015167ffffffffffffffff81111562000674576200067362000476565b5b6200068287828801620005d1565b935050604085015167ffffffffffffffff811115620006a657620006a562000476565b5b620006b487828801620005d1565b925050606085015167ffffffffffffffff811115620006d857620006d762000476565b5b620006e687828801620005d1565b91505092959194509250565b600082825260208201905092915050565b7f4f776e61626c653a2063616c6c6572206973206e6f7420746865206f776e6572600082015250565b60006200073b602083620006f2565b9150620007488262000703565b602082019050919050565b600060208201905081810360008301526200076e816200072c565b9050919050565b7f4e487b7100000000000000000000000000000000000000000000000000000000600052602260045260246000fd5b60006002820490506001821680620007bd57607f821691505b60208210811415620007d457620007d362000775565b5b50919050565b61439180620007ea6000396000f3fe608060405234801561001057600080fd5b506004361061021c5760003560e01c80635c975abb11610125578063a22cb465116100ad578063c87b56dd1161007c578063c87b56dd146105df578063da3ef23f1461060f578063e985e9c51461062b578063f2c4ce1e1461065b578063f2fde38b146106775761021c565b8063a22cb4651461057f578063b88d4fde1461059b578063be1963b5146105b7578063c6682862146105c15761021c565b80638da5cb5b116100f45780638da5cb5b146104eb5780638ecad72114610509578063948ea65c1461052757806395d89b4114610545578063a0712d68146105635761021c565b80635c975abb146104635780636352211e1461048157806370a08231146104b1578063715018a6146104e15761021c565b80632f745c59116101a857806344a0d68a1161017757806344a0d68a146103d35780634f6ccce7146103ef578063518302271461041f57806351d642741461043d57806355f804b3146104475761021c565b80632f745c591461034d57806332cb6b0c1461037d57806342842e0e1461039b57806342966c68146103b75761021c565b8063081c8c44116101ef578063081c8c44146102bb578063095ea7b3146102d957806313faede6146102f557806318160ddd1461031357806323b872dd146103315761021c565b806301ffc9a71461022157806302329a291461025157806306fdde031461026d578063081812fc1461028b575b600080fd5b61023b60048036038101906102369190612d0f565b610693565b6040516102489190612d57565b60405180910390f35b61026b60048036038101906102669190612d9e565b61070d565b005b6102756107a6565b6040516102829190612e64565b60405180910390f35b6102a560048036038101906102a09190612ebc565b610838565b6040516102b29190612f2a565b60405180910390f35b6102c36108bd565b6040516102d09190612e64565b60405180910390f35b6102f360048036038101906102ee9190612f71565b61094b565b005b6102fd610a63565b60405161030a9190612fc0565b60405180910390f35b61031b610a69565b6040516103289190612fc0565b60405180910390f35b61034b60048036038101906103469190612fdb565b610a76565b005b61036760048036038101906103629190612f71565b610ad6565b6040516103749190612fc0565b60405180910390f35b610385610b7b565b6040516103929190612fc0565b60405180910390f35b6103b560048036038101906103b09190612fdb565b610b81565b005b6103d160048036038101906103cc9190612ebc565b610ba1565b005b6103ed60048036038101906103e89190612ebc565b610bfd565b005b61040960048036038101906104049190612ebc565b610c83565b6040516104169190612fc0565b60405180910390f35b610427610cf4565b6040516104349190612d57565b60405180910390f35b610445610d07565b005b610461600480360381019061045c9190613163565b610daf565b005b61046b610e45565b6040516104789190612d57565b60405180910390f35b61049b60048036038101906104969190612ebc565b610e58565b6040516104a89190612f2a565b60405180910390f35b6104cb60048036038101906104c691906131ac565b610f0a565b6040516104d89190612fc0565b60405180910390f35b6104e9610fc2565b005b6104f361104a565b6040516105009190612f2a565b60405180910390f35b610511611074565b60405161051e9190612fc0565b60405180910390f35b61052f611079565b60405161053c9190612d57565b60405180910390f35b61054d61108c565b60405161055a9190612e64565b60405180910390f35b61057d60048036038101906105789190612ebc565b61111e565b005b610599600480360381019061059491906131d9565b6112d1565b005b6105b560048036038101906105b091906132ba565b6112e7565b005b6105bf611349565b005b6105c96113e2565b6040516105d69190612e64565b60405180910390f35b6105f960048036038101906105f49190612ebc565b611470565b6040516106069190612e64565b60405180910390f35b61062960048036038101906106249190613163565b6115c9565b005b6106456004803603810190610640919061333d565b61165f565b6040516106529190612d57565b60405180910390f35b61067560048036038101906106709190613163565b6116f3565b005b610691600480360381019061068c91906131ac565b611789565b005b60007f780e9d63000000000000000000000000000000000000000000000000000000007bffffffffffffffffffffffffffffffffffffffffffffffffffffffff1916827bffffffffffffffffffffffffffffffffffffffffffffffffffffffff19161480610706575061070582611881565b5b9050919050565b610715611963565b73ffffffffffffffffffffffffffffffffffffffff1661073361104a565b73ffffffffffffffffffffffffffffffffffffffff1614610789576040517f08c379a0000000000000000000000000000000000000000000000000000000008152600401610780906133c9565b60405180910390fd5b80600f60006101000a81548160ff02191690831515021790555050565b6060600080546107b590613418565b80601f01602080910402602001604051908101604052809291908181526020018280546107e190613418565b801561082e5780601f106108035761010080835404028352916020019161082e565b820191906000526020600020905b81548152906001019060200180831161081157829003601f168201915b5050505050905090565b60006108438261196b565b610882576040517f08c379a0000000000000000000000000000000000000000000000000000000008152600401610879906134bc565b60405180910390fd5b6004600083815260200190815260200160002060009054906101000a900473ffffffffffffffffffffffffffffffffffffffff169050919050565b601080546108ca90613418565b80601f01602080910402602001604051908101604052809291908181526020018280546108f690613418565b80156109435780601f1061091857610100808354040283529160200191610943565b820191906000526020600020905b81548152906001019060200180831161092657829003601f168201915b505050505081565b600061095682610e58565b90508073ffffffffffffffffffffffffffffffffffffffff168373ffffffffffffffffffffffffffffffffffffffff1614156109c7576040517f08c379a00000000000000000000000000000000000000000000000000000000081526004016109be9061354e565b60405180910390fd5b8073ffffffffffffffffffffffffffffffffffffffff166109e6611963565b73ffffffffffffffffffffffffffffffffffffffff161480610a155750610a1481610a0f611963565b61165f565b5b610a54576040517f08c379a0000000000000000000000000000000000000000000000000000000008152600401610a4b906135e0565b60405180910390fd5b610a5e83836119d7565b505050565b600d5481565b6000600880549050905090565b610a87610a81611963565b82611a90565b610ac6576040517f08c379a0000000000000000000000000000000000000000000000000000000008152600401610abd90613672565b60405180910390fd5b610ad1838383611b6e565b505050565b6000610ae183610f0a565b8210610b22576040517f08c379a0000000000000000000000000000000000000000000000000000000008152600401610b1990613704565b60405180910390fd5b600660008473ffffffffffffffffffffffffffffffffffffffff1673ffffffffffffffffffffffffffffffffffffffff168152602001908152602001600020600083815260200190815260200160002054905092915050565b600e5481565b610b9c838383604051806020016040528060008152506112e7565b505050565b610bb2610bac611963565b82611a90565b610bf1576040517f08c379a0000000000000000000000000000000000000000000000000000000008152600401610be890613796565b60405180910390fd5b610bfa81611dd5565b50565b610c05611963565b73ffffffffffffffffffffffffffffffffffffffff16610c2361104a565b73ffffffffffffffffffffffffffffffffffffffff1614610c79576040517f08c379a0000000000000000000000000000000000000000000000000000000008152600401610c70906133c9565b60405180910390fd5b80600d8190555050565b6000610c8d610a69565b8210610cce576040517f08c379a0000000000000000000000000000000000000000000000000000000008152600401610cc590613828565b60405180910390fd5b60088281548110610ce257610ce1613848565b5b90600052602060002001549050919050565b600f60019054906101000a900460ff1681565b610d0f611963565b73ffffffffffffffffffffffffffffffffffffffff16610d2d61104a565b73ffffffffffffffffffffffffffffffffffffffff1614610d83576040517f08c379a0000000000000000000000000000000000000000000000000000000008152600401610d7a906133c9565b60405180910390fd5b600a60149054906101000a900460ff1615600a60146101000a81548160ff021916908315150217905550565b610db7611963565b73ffffffffffffffffffffffffffffffffffffffff16610dd561104a565b73ffffffffffffffffffffffffffffffffffffffff1614610e2b576040517f08c379a0000000000000000000000000000000000000000000000000000000008152600401610e22906133c9565b60405180910390fd5b80600b9080519060200190610e41929190612c00565b5050565b600f60009054906101000a900460ff1681565b6000806002600084815260200190815260200160002060009054906101000a900473ffffffffffffffffffffffffffffffffffffffff169050600073ffffffffffffffffffffffffffffffffffffffff168173ffffffffffffffffffffffffffffffffffffffff161415610f01576040517f08c379a0000000000000000000000000000000000000000000000000000000008152600401610ef8906138e9565b60405180910390fd5b80915050919050565b60008073ffffffffffffffffffffffffffffffffffffffff168273ffffffffffffffffffffffffffffffffffffffff161415610f7b576040517f08c379a0000000000000000000000000000000000000000000000000000000008152600401610f729061397b565b60405180910390fd5b600360008373ffffffffffffffffffffffffffffffffffffffff1673ffffffffffffffffffffffffffffffffffffffff168152602001908152602001600020549050919050565b610fca611963565b73ffffffffffffffffffffffffffffffffffffffff16610fe861104a565b73ffffffffffffffffffffffffffffffffffffffff161461103e576040517f08c379a0000000000000000000000000000000000000000000000000000000008152600401611035906133c9565b60405180910390fd5b6110486000611ef2565b565b6000600a60009054906101000a900473ffffffffffffffffffffffffffffffffffffffff16905090565b600581565b600a60149054906101000a900460ff1681565b60606001805461109b90613418565b80601f01602080910402602001604051908101604052809291908181526020018280546110c790613418565b80156111145780601f106110e957610100808354040283529160200191611114565b820191906000526020600020905b8154815290600101906020018083116110f757829003601f168201915b5050505050905090565b611126611963565b73ffffffffffffffffffffffffffffffffffffffff1661114461104a565b73ffffffffffffffffffffffffffffffffffffffff161461119a576040517f08c379a0000000000000000000000000000000000000000000000000000000008152600401611191906133c9565b60405180910390fd5b60006111a4610a69565b9050600f60009054906101000a900460ff16156111f6576040517f08c379a00000000000000000000000000000000000000000000000000000000081526004016111ed906139e7565b60405180910390fd5b600082118015611207575060058211155b611246576040517f08c379a000000000000000000000000000000000000000000000000000000000815260040161123d90613a79565b60405180910390fd5b600e5482826112559190613ac8565b1115611296576040517f08c379a000000000000000000000000000000000000000000000000000000000815260040161128d90613b6a565b60405180910390fd5b6000600190505b8281116112cc576112b93382846112b49190613ac8565b611fb8565b80806112c490613b8a565b91505061129d565b505050565b6112e36112dc611963565b8383611fd6565b5050565b6112f86112f2611963565b83611a90565b611337576040517f08c379a000000000000000000000000000000000000000000000000000000000815260040161132e90613672565b60405180910390fd5b61134384848484612143565b50505050565b611351611963565b73ffffffffffffffffffffffffffffffffffffffff1661136f61104a565b73ffffffffffffffffffffffffffffffffffffffff16146113c5576040517f08c379a00000000000000000000000000000000000000000000000000000000081526004016113bc906133c9565b60405180910390fd5b6001600f60016101000a81548160ff021916908315150217905550565b600c80546113ef90613418565b80601f016020809104026020016040519081016040528092919081815260200182805461141b90613418565b80156114685780601f1061143d57610100808354040283529160200191611468565b820191906000526020600020905b81548152906001019060200180831161144b57829003601f168201915b505050505081565b606061147b8261196b565b6114ba576040517f08c379a00000000000000000000000000000000000000000000000000000000081526004016114b190613c45565b60405180910390fd5b60001515600f60019054906101000a900460ff161515141561156857601080546114e390613418565b80601f016020809104026020016040519081016040528092919081815260200182805461150f90613418565b801561155c5780601f106115315761010080835404028352916020019161155c565b820191906000526020600020905b81548152906001019060200180831161153f57829003601f168201915b505050505090506115c4565b600061157261219f565b9050600081511161159257604051806020016040528060008152506115c0565b8061159c84612231565b600c6040516020016115b093929190613d35565b6040516020818303038152906040525b9150505b919050565b6115d1611963565b73ffffffffffffffffffffffffffffffffffffffff166115ef61104a565b73ffffffffffffffffffffffffffffffffffffffff1614611645576040517f08c379a000000000000000000000000000000000000000000000000000000000815260040161163c906133c9565b60405180910390fd5b80600c908051906020019061165b929190612c00565b5050565b6000600560008473ffffffffffffffffffffffffffffffffffffffff1673ffffffffffffffffffffffffffffffffffffffff16815260200190815260200160002060008373ffffffffffffffffffffffffffffffffffffffff1673ffffffffffffffffffffffffffffffffffffffff16815260200190815260200160002060009054906101000a900460ff16905092915050565b6116fb611963565b73ffffffffffffffffffffffffffffffffffffffff1661171961104a565b73ffffffffffffffffffffffffffffffffffffffff161461176f576040517f08c379a0000000000000000000000000000000000000000000000000000000008152600401611766906133c9565b60405180910390fd5b8060109080519060200190611785929190612c00565b5050565b611791611963565b73ffffffffffffffffffffffffffffffffffffffff166117af61104a565b73ffffffffffffffffffffffffffffffffffffffff1614611805576040517f08c379a00000000000000000000000000000000000000000000000000000000081526004016117fc906133c9565b60405180910390fd5b600073ffffffffffffffffffffffffffffffffffffffff168173ffffffffffffffffffffffffffffffffffffffff161415611875576040517f08c379a000000000000000000000000000000000000000000000000000000000815260040161186c90613dd8565b60405180910390fd5b61187e81611ef2565b50565b60007f80ac58cd000000000000000000000000000000000000000000000000000000007bffffffffffffffffffffffffffffffffffffffffffffffffffffffff1916827bffffffffffffffffffffffffffffffffffffffffffffffffffffffff1916148061194c57507f5b5e139f000000000000000000000000000000000000000000000000000000007bffffffffffffffffffffffffffffffffffffffffffffffffffffffff1916827bffffffffffffffffffffffffffffffffffffffffffffffffffffffff1916145b8061195c575061195b82612392565b5b9050919050565b600033905090565b60008073ffffffffffffffffffffffffffffffffffffffff166002600084815260200190815260200160002060009054906101000a900473ffffffffffffffffffffffffffffffffffffffff1673ffffffffffffffffffffffffffffffffffffffff1614159050919050565b816004600083815260200190815260200160002060006101000a81548173ffffffffffffffffffffffffffffffffffffffff021916908373ffffffffffffffffffffffffffffffffffffffff160217905550808273ffffffffffffffffffffffffffffffffffffffff16611a4a83610e58565b73ffffffffffffffffffffffffffffffffffffffff167f8c5be1e5ebec7d5bd14f71427d1e84f3dd0314c0f7b2291e5b200ac8c7c3b92560405160405180910390a45050565b6000611a9b8261196b565b611ada576040517f08c379a0000000000000000000000000000000000000000000000000000000008152600401611ad190613e6a565b60405180910390fd5b6000611ae583610e58565b90508073ffffffffffffffffffffffffffffffffffffffff168473ffffffffffffffffffffffffffffffffffffffff161480611b275750611b26818561165f565b5b80611b6557508373ffffffffffffffffffffffffffffffffffffffff16611b4d84610838565b73ffffffffffffffffffffffffffffffffffffffff16145b91505092915050565b8273ffffffffffffffffffffffffffffffffffffffff16611b8e82610e58565b73ffffffffffffffffffffffffffffffffffffffff1614611be4576040517f08c379a0000000000000000000000000000000000000000000000000000000008152600401611bdb90613efc565b60405180910390fd5b600073ffffffffffffffffffffffffffffffffffffffff168273ffffffffffffffffffffffffffffffffffffffff161415611c54576040517f08c379a0000000000000000000000000000000000000000000000000000000008152600401611c4b90613f8e565b60405180910390fd5b611c5f8383836123fc565b611c6a6000826119d7565b6001600360008573ffffffffffffffffffffffffffffffffffffffff1673ffffffffffffffffffffffffffffffffffffffff1681526020019081526020016000206000828254611cba9190613fae565b925050819055506001600360008473ffffffffffffffffffffffffffffffffffffffff1673ffffffffffffffffffffffffffffffffffffffff1681526020019081526020016000206000828254611d119190613ac8565b92505081905550816002600083815260200190815260200160002060006101000a81548173ffffffffffffffffffffffffffffffffffffffff021916908373ffffffffffffffffffffffffffffffffffffffff160217905550808273ffffffffffffffffffffffffffffffffffffffff168473ffffffffffffffffffffffffffffffffffffffff167fddf252ad1be2c89b69c2b068fc378daa952ba7f163c4a11628f55a4df523b3ef60405160405180910390a4611dd0838383612510565b505050565b6000611de082610e58565b9050611dee816000846123fc565b611df96000836119d7565b6001600360008373ffffffffffffffffffffffffffffffffffffffff1673ffffffffffffffffffffffffffffffffffffffff1681526020019081526020016000206000828254611e499190613fae565b925050819055506002600083815260200190815260200160002060006101000a81549073ffffffffffffffffffffffffffffffffffffffff021916905581600073ffffffffffffffffffffffffffffffffffffffff168273ffffffffffffffffffffffffffffffffffffffff167fddf252ad1be2c89b69c2b068fc378daa952ba7f163c4a11628f55a4df523b3ef60405160405180910390a4611eee81600084612510565b5050565b6000600a60009054906101000a900473ffffffffffffffffffffffffffffffffffffffff16905081600a60006101000a81548173ffffffffffffffffffffffffffffffffffffffff021916908373ffffffffffffffffffffffffffffffffffffffff1602179055508173ffffffffffffffffffffffffffffffffffffffff168173ffffffffffffffffffffffffffffffffffffffff167f8be0079c531659141344cd1fd0a4f28419497f9722a3daafe3b4186f6b6457e060405160405180910390a35050565b611fd2828260405180602001604052806000815250612515565b5050565b8173ffffffffffffffffffffffffffffffffffffffff168373ffffffffffffffffffffffffffffffffffffffff161415612045576040517f08c379a000000000000000000000000000000000000000000000000000000000815260040161203c9061402e565b60405180910390fd5b80600560008573ffffffffffffffffffffffffffffffffffffffff1673ffffffffffffffffffffffffffffffffffffffff16815260200190815260200160002060008473ffffffffffffffffffffffffffffffffffffffff1673ffffffffffffffffffffffffffffffffffffffff16815260200190815260200160002060006101000a81548160ff0219169083151502179055508173ffffffffffffffffffffffffffffffffffffffff168373ffffffffffffffffffffffffffffffffffffffff167f17307eab39ab6107e8899845ad3d59bd9653f200f220920489ca2b5937696c31836040516121369190612d57565b60405180910390a3505050565b61214e848484611b6e565b61215a84848484612570565b612199576040517f08c379a0000000000000000000000000000000000000000000000000000000008152600401612190906140c0565b60405180910390fd5b50505050565b6060600b80546121ae90613418565b80601f01602080910402602001604051908101604052809291908181526020018280546121da90613418565b80156122275780601f106121fc57610100808354040283529160200191612227565b820191906000526020600020905b81548152906001019060200180831161220a57829003601f168201915b5050505050905090565b60606000821415612279576040518060400160405280600181526020017f3000000000000000000000000000000000000000000000000000000000000000815250905061238d565b600082905060005b600082146122ab57808061229490613b8a565b915050600a826122a4919061410f565b9150612281565b60008167ffffffffffffffff8111156122c7576122c6613038565b5b6040519080825280601f01601f1916602001820160405280156122f95781602001600182028036833780820191505090505b5090505b60008514612386576001826123129190613fae565b9150600a856123219190614140565b603061232d9190613ac8565b60f81b81838151811061234357612342613848565b5b60200101907effffffffffffffffffffffffffffffffffffffffffffffffffffffffffffff1916908160001a905350600a8561237f919061410f565b94506122fd565b8093505050505b919050565b60007f01ffc9a7000000000000000000000000000000000000000000000000000000007bffffffffffffffffffffffffffffffffffffffffffffffffffffffff1916827bffffffffffffffffffffffffffffffffffffffffffffffffffffffff1916149050919050565b6124078383836126f8565b600073ffffffffffffffffffffffffffffffffffffffff168373ffffffffffffffffffffffffffffffffffffffff16141561244a57612445816126fd565b612489565b8173ffffffffffffffffffffffffffffffffffffffff168373ffffffffffffffffffffffffffffffffffffffff1614612488576124878382612746565b5b5b600073ffffffffffffffffffffffffffffffffffffffff168273ffffffffffffffffffffffffffffffffffffffff1614156124cc576124c7816128b3565b61250b565b8273ffffffffffffffffffffffffffffffffffffffff168273ffffffffffffffffffffffffffffffffffffffff161461250a576125098282612984565b5b5b505050565b505050565b61251f8383612a03565b61252c6000848484612570565b61256b576040517f08c379a0000000000000000000000000000000000000000000000000000000008152600401612562906140c0565b60405180910390fd5b505050565b60006125918473ffffffffffffffffffffffffffffffffffffffff16612bdd565b156126eb578373ffffffffffffffffffffffffffffffffffffffff1663150b7a026125ba611963565b8786866040518563ffffffff1660e01b81526004016125dc94939291906141c6565b6020604051808303816000875af192505050801561261857506040513d601f19601f820116820180604052508101906126159190614227565b60015b61269b573d8060008114612648576040519150601f19603f3d011682016040523d82523d6000602084013e61264d565b606091505b50600081511415612693576040517f08c379a000000000000000000000000000000000000000000000000000000000815260040161268a906140c0565b60405180910390fd5b805181602001fd5b63150b7a0260e01b7bffffffffffffffffffffffffffffffffffffffffffffffffffffffff1916817bffffffffffffffffffffffffffffffffffffffffffffffffffffffff1916149150506126f0565b600190505b949350505050565b505050565b6008805490506009600083815260200190815260200160002081905550600881908060018154018082558091505060019003906000526020600020016000909190919091505550565b6000600161275384610f0a565b61275d9190613fae565b9050600060076000848152602001908152602001600020549050818114612842576000600660008673ffffffffffffffffffffffffffffffffffffffff1673ffffffffffffffffffffffffffffffffffffffff168152602001908152602001600020600084815260200190815260200160002054905080600660008773ffffffffffffffffffffffffffffffffffffffff1673ffffffffffffffffffffffffffffffffffffffff168152602001908152602001600020600084815260200190815260200160002081905550816007600083815260200190815260200160002081905550505b6007600084815260200190815260200160002060009055600660008573ffffffffffffffffffffffffffffffffffffffff1673ffffffffffffffffffffffffffffffffffffffff16815260200190815260200160002060008381526020019081526020016000206000905550505050565b600060016008805490506128c79190613fae565b90506000600960008481526020019081526020016000205490506000600883815481106128f7576128f6613848565b5b90600052602060002001549050806008838154811061291957612918613848565b5b90600052602060002001819055508160096000838152602001908152602001600020819055506009600085815260200190815260200160002060009055600880548061296857612967614254565b5b6001900381819060005260206000200160009055905550505050565b600061298f83610f0a565b905081600660008573ffffffffffffffffffffffffffffffffffffffff1673ffffffffffffffffffffffffffffffffffffffff168152602001908152602001600020600083815260200190815260200160002081905550806007600084815260200190815260200160002081905550505050565b600073ffffffffffffffffffffffffffffffffffffffff168273ffffffffffffffffffffffffffffffffffffffff161415612a73576040517f08c379a0000000000000000000000000000000000000000000000000000000008152600401612a6a906142cf565b60405180910390fd5b612a7c8161196b565b15612abc576040517f08c379a0000000000000000000000000000000000000000000000000000000008152600401612ab39061433b565b60405180910390fd5b612ac8600083836123fc565b6001600360008473ffffffffffffffffffffffffffffffffffffffff1673ffffffffffffffffffffffffffffffffffffffff1681526020019081526020016000206000828254612b189190613ac8565b92505081905550816002600083815260200190815260200160002060006101000a81548173ffffffffffffffffffffffffffffffffffffffff021916908373ffffffffffffffffffffffffffffffffffffffff160217905550808273ffffffffffffffffffffffffffffffffffffffff16600073ffffffffffffffffffffffffffffffffffffffff167fddf252ad1be2c89b69c2b068fc378daa952ba7f163c4a11628f55a4df523b3ef60405160405180910390a4612bd960008383612510565b5050565b6000808273ffffffffffffffffffffffffffffffffffffffff163b119050919050565b828054612c0c90613418565b90600052602060002090601f016020900481019282612c2e5760008555612c75565b82601f10612c4757805160ff1916838001178555612c75565b82800160010185558215612c75579182015b82811115612c74578251825591602001919060010190612c59565b5b509050612c829190612c86565b5090565b5b80821115612c9f576000816000905550600101612c87565b5090565b6000604051905090565b600080fd5b600080fd5b60007fffffffff0000000000000000000000000000000000000000000000000000000082169050919050565b612cec81612cb7565b8114612cf757600080fd5b50565b600081359050612d0981612ce3565b92915050565b600060208284031215612d2557612d24612cad565b5b6000612d3384828501612cfa565b91505092915050565b60008115159050919050565b612d5181612d3c565b82525050565b6000602082019050612d6c6000830184612d48565b92915050565b612d7b81612d3c565b8114612d8657600080fd5b50565b600081359050612d9881612d72565b92915050565b600060208284031215612db457612db3612cad565b5b6000612dc284828501612d89565b91505092915050565b600081519050919050565b600082825260208201905092915050565b60005b83811015612e05578082015181840152602081019050612dea565b83811115612e14576000848401525b50505050565b6000601f19601f8301169050919050565b6000612e3682612dcb565b612e408185612dd6565b9350612e50818560208601612de7565b612e5981612e1a565b840191505092915050565b60006020820190508181036000830152612e7e8184612e2b565b905092915050565b6000819050919050565b612e9981612e86565b8114612ea457600080fd5b50565b600081359050612eb681612e90565b92915050565b600060208284031215612ed257612ed1612cad565b5b6000612ee084828501612ea7565b91505092915050565b600073ffffffffffffffffffffffffffffffffffffffff82169050919050565b6000612f1482612ee9565b9050919050565b612f2481612f09565b82525050565b6000602082019050612f3f6000830184612f1b565b92915050565b612f4e81612f09565b8114612f5957600080fd5b50565b600081359050612f6b81612f45565b92915050565b60008060408385031215612f8857612f87612cad565b5b6000612f9685828601612f5c565b9250506020612fa785828601612ea7565b9150509250929050565b612fba81612e86565b82525050565b6000602082019050612fd56000830184612fb1565b92915050565b600080600060608486031215612ff457612ff3612cad565b5b600061300286828701612f5c565b935050602061301386828701612f5c565b925050604061302486828701612ea7565b9150509250925092565b600080fd5b600080fd5b7f4e487b7100000000000000000000000000000000000000000000000000000000600052604160045260246000fd5b61307082612e1a565b810181811067ffffffffffffffff8211171561308f5761308e613038565b5b80604052505050565b60006130a2612ca3565b90506130ae8282613067565b919050565b600067ffffffffffffffff8211156130ce576130cd613038565b5b6130d782612e1a565b9050602081019050919050565b82818337600083830152505050565b6000613106613101846130b3565b613098565b90508281526020810184848401111561312257613121613033565b5b61312d8482856130e4565b509392505050565b600082601f83011261314a5761314961302e565b5b813561315a8482602086016130f3565b91505092915050565b60006020828403121561317957613178612cad565b5b600082013567ffffffffffffffff81111561319757613196612cb2565b5b6131a384828501613135565b91505092915050565b6000602082840312156131c2576131c1612cad565b5b60006131d084828501612f5c565b91505092915050565b600080604083850312156131f0576131ef612cad565b5b60006131fe85828601612f5c565b925050602061320f85828601612d89565b9150509250929050565b600067ffffffffffffffff82111561323457613233613038565b5b61323d82612e1a565b9050602081019050919050565b600061325d61325884613219565b613098565b90508281526020810184848401111561327957613278613033565b5b6132848482856130e4565b509392505050565b600082601f8301126132a1576132a061302e565b5b81356132b184826020860161324a565b91505092915050565b600080600080608085870312156132d4576132d3612cad565b5b60006132e287828801612f5c565b94505060206132f387828801612f5c565b935050604061330487828801612ea7565b925050606085013567ffffffffffffffff81111561332557613324612cb2565b5b6133318782880161328c565b91505092959194509250565b6000806040838503121561335457613353612cad565b5b600061336285828601612f5c565b925050602061337385828601612f5c565b9150509250929050565b7f4f776e61626c653a2063616c6c6572206973206e6f7420746865206f776e6572600082015250565b60006133b3602083612dd6565b91506133be8261337d565b602082019050919050565b600060208201905081810360008301526133e2816133a6565b9050919050565b7f4e487b7100000000000000000000000000000000000000000000000000000000600052602260045260246000fd5b6000600282049050600182168061343057607f821691505b60208210811415613444576134436133e9565b5b50919050565b7f4552433732313a20617070726f76656420717565727920666f72206e6f6e657860008201527f697374656e7420746f6b656e0000000000000000000000000000000000000000602082015250565b60006134a6602c83612dd6565b91506134b18261344a565b604082019050919050565b600060208201905081810360008301526134d581613499565b9050919050565b7f4552433732313a20617070726f76616c20746f2063757272656e74206f776e6560008201527f7200000000000000000000000000000000000000000000000000000000000000602082015250565b6000613538602183612dd6565b9150613543826134dc565b604082019050919050565b600060208201905081810360008301526135678161352b565b9050919050565b7f4552433732313a20617070726f76652063616c6c6572206973206e6f74206f7760008201527f6e6572206e6f7220617070726f76656420666f7220616c6c0000000000000000602082015250565b60006135ca603883612dd6565b91506135d58261356e565b604082019050919050565b600060208201905081810360008301526135f9816135bd565b9050919050565b7f4552433732313a207472616e736665722063616c6c6572206973206e6f74206f60008201527f776e6572206e6f7220617070726f766564000000000000000000000000000000602082015250565b600061365c603183612dd6565b915061366782613600565b604082019050919050565b6000602082019050818103600083015261368b8161364f565b9050919050565b7f455243373231456e756d657261626c653a206f776e657220696e646578206f7560008201527f74206f6620626f756e6473000000000000000000000000000000000000000000602082015250565b60006136ee602b83612dd6565b91506136f982613692565b604082019050919050565b6000602082019050818103600083015261371d816136e1565b9050919050565b7f596f75206d757374206f776e20616e204e46542066726f6d207468697320636f60008201527f6c6c656374696f6e000000000000000000000000000000000000000000000000602082015250565b6000613780602883612dd6565b915061378b82613724565b604082019050919050565b600060208201905081810360008301526137af81613773565b9050919050565b7f455243373231456e756d657261626c653a20676c6f62616c20696e646578206f60008201527f7574206f6620626f756e64730000000000000000000000000000000000000000602082015250565b6000613812602c83612dd6565b915061381d826137b6565b604082019050919050565b6000602082019050818103600083015261384181613805565b9050919050565b7f4e487b7100000000000000000000000000000000000000000000000000000000600052603260045260246000fd5b7f4552433732313a206f776e657220717565727920666f72206e6f6e657869737460008201527f656e7420746f6b656e0000000000000000000000000000000000000000000000602082015250565b60006138d3602983612dd6565b91506138de82613877565b604082019050919050565b60006020820190508181036000830152613902816138c6565b9050919050565b7f4552433732313a2062616c616e636520717565727920666f7220746865207a6560008201527f726f206164647265737300000000000000000000000000000000000000000000602082015250565b6000613965602a83612dd6565b915061397082613909565b604082019050919050565b6000602082019050818103600083015261399481613958565b9050919050565b7f5061757365640000000000000000000000000000000000000000000000000000600082015250565b60006139d1600683612dd6565b91506139dc8261399b565b602082019050919050565b60006020820190508181036000830152613a00816139c4565b9050919050565b7f43616e206f6e6c79206d696e74206265747765656e203120616e64203520746f60008201527f6b656e73206174206f6e63650000000000000000000000000000000000000000602082015250565b6000613a63602c83612dd6565b9150613a6e82613a07565b604082019050919050565b60006020820190508181036000830152613a9281613a56565b9050919050565b7f4e487b7100000000000000000000000000000000000000000000000000000000600052601160045260246000fd5b6000613ad382612e86565b9150613ade83612e86565b9250827fffffffffffffffffffffffffffffffffffffffffffffffffffffffffffffffff03821115613b1357613b12613a99565b5b828201905092915050565b7f43616e2774206d696e74206d6f7265207468616e206d617820737570706c7900600082015250565b6000613b54601f83612dd6565b9150613b5f82613b1e565b602082019050919050565b60006020820190508181036000830152613b8381613b47565b9050919050565b6000613b9582612e86565b91507fffffffffffffffffffffffffffffffffffffffffffffffffffffffffffffffff821415613bc857613bc7613a99565b5b600182019050919050565b7f4552433732314d657461646174613a2055524920717565727920666f72206e6f60008201527f6e6578697374656e7420746f6b656e0000000000000000000000000000000000602082015250565b6000613c2f602f83612dd6565b9150613c3a82613bd3565b604082019050919050565b60006020820190508181036000830152613c5e81613c22565b9050919050565b600081905092915050565b6000613c7b82612dcb565b613c858185613c65565b9350613c95818560208601612de7565b80840191505092915050565b60008190508160005260206000209050919050565b60008154613cc381613418565b613ccd8186613c65565b94506001821660008114613ce85760018114613cf957613d2c565b60ff19831686528186019350613d2c565b613d0285613ca1565b60005b83811015613d2457815481890152600182019150602081019050613d05565b838801955050505b50505092915050565b6000613d418286613c70565b9150613d4d8285613c70565b9150613d598284613cb6565b9150819050949350505050565b7f4f776e61626c653a206e6577206f776e657220697320746865207a65726f206160008201527f6464726573730000000000000000000000000000000000000000000000000000602082015250565b6000613dc2602683612dd6565b9150613dcd82613d66565b604082019050919050565b60006020820190508181036000830152613df181613db5565b9050919050565b7f4552433732313a206f70657261746f7220717565727920666f72206e6f6e657860008201527f697374656e7420746f6b656e0000000000000000000000000000000000000000602082015250565b6000613e54602c83612dd6565b9150613e5f82613df8565b604082019050919050565b60006020820190508181036000830152613e8381613e47565b9050919050565b7f4552433732313a207472616e736665722066726f6d20696e636f72726563742060008201527f6f776e6572000000000000000000000000000000000000000000000000000000602082015250565b6000613ee6602583612dd6565b9150613ef182613e8a565b604082019050919050565b60006020820190508181036000830152613f1581613ed9565b9050919050565b7f4552433732313a207472616e7366657220746f20746865207a65726f2061646460008201527f7265737300000000000000000000000000000000000000000000000000000000602082015250565b6000613f78602483612dd6565b9150613f8382613f1c565b604082019050919050565b60006020820190508181036000830152613fa781613f6b565b9050919050565b6000613fb982612e86565b9150613fc483612e86565b925082821015613fd757613fd6613a99565b5b828203905092915050565b7f4552433732313a20617070726f766520746f2063616c6c657200000000000000600082015250565b6000614018601983612dd6565b915061402382613fe2565b602082019050919050565b600060208201905081810360008301526140478161400b565b9050919050565b7f4552433732313a207472616e7366657220746f206e6f6e20455243373231526560008201527f63656976657220696d706c656d656e7465720000000000000000000000000000602082015250565b60006140aa603283612dd6565b91506140b58261404e565b604082019050919050565b600060208201905081810360008301526140d98161409d565b9050919050565b7f4e487b7100000000000000000000000000000000000000000000000000000000600052601260045260246000fd5b600061411a82612e86565b915061412583612e86565b925082614135576141346140e0565b5b828204905092915050565b600061414b82612e86565b915061415683612e86565b925082614166576141656140e0565b5b828206905092915050565b600081519050919050565b600082825260208201905092915050565b600061419882614171565b6141a2818561417c565b93506141b2818560208601612de7565b6141bb81612e1a565b840191505092915050565b60006080820190506141db6000830187612f1b565b6141e86020830186612f1b565b6141f56040830185612fb1565b8181036060830152614207818461418d565b905095945050505050565b60008151905061422181612ce3565b92915050565b60006020828403121561423d5761423c612cad565b5b600061424b84828501614212565b91505092915050565b7f4e487b7100000000000000000000000000000000000000000000000000000000600052603160045260246000fd5b7f4552433732313a206d696e7420746f20746865207a65726f2061646472657373600082015250565b60006142b9602083612dd6565b91506142c482614283565b602082019050919050565b600060208201905081810360008301526142e8816142ac565b9050919050565b7f4552433732313a20746f6b656e20616c7265616479206d696e74656400000000600082015250565b6000614325601c83612dd6565b9150614330826142ef565b602082019050919050565b6000602082019050818103600083015261435481614318565b905091905056fea264697066735822122095d7e212ae15cfc512a76e803c719bfd429865d201240b3ae0eb296f857675fd64736f6c634300080c0033",
  "linkReferences": {},
  "deployedLinkReferences": {}
}