{
  "_format": "hh-sol-artifact-1",
  "contractName": "Auction",
  "sourceName": "contracts/Auction.sol",
  "abi": [
    {
      "inputs": [
        {
          "internalType": "address",
          "name": "_collection",
          "type": "address"
        }
      ],
      "stateMutability": "nonpayable",
      "type": "constructor"
    },
    {
      "anonymous": false,
      "inputs": [
        {
          "indexed": true,
          "internalType": "uint256",
          "name": "orderId",
          "type": "uint256"
        },
        {
          "indexed": true,
          "internalType": "address",
          "name": "bidder",
          "type": "address"
        },
        {
          "indexed": false,
          "internalType": "uint256",
          "name": "bid",
          "type": "uint256"
        }
      ],
      "name": "OrderBid",
      "type": "event"
    },
    {
      "anonymous": false,
      "inputs": [
        {
          "indexed": true,
          "internalType": "uint256",
          "name": "orderId",
          "type": "uint256"
        },
        {
          "indexed": true,
          "internalType": "address",
          "name": "seller",
          "type": "address"
        }
      ],
      "name": "OrderCanceled",
      "type": "event"
    },
    {
      "anonymous": false,
      "inputs": [
        {
          "indexed": true,
          "internalType": "uint256",
          "name": "orderId",
          "type": "uint256"
        },
        {
          "indexed": false,
          "internalType": "address",
          "name": "seller",
          "type": "address"
        },
        {
          "indexed": true,
          "internalType": "uint256",
          "name": "tokenId",
          "type": "uint256"
        },
        {
          "indexed": true,
          "internalType": "address",
          "name": "quoteToken",
          "type": "address"
        },
        {
          "indexed": false,
          "internalType": "uint256",
          "name": "minPrice",
          "type": "uint256"
        },
        {
          "indexed": false,
          "internalType": "uint256",
          "name": "endTime",
          "type": "uint256"
        }
      ],
      "name": "OrderCreated",
      "type": "event"
    },
    {
      "anonymous": false,
      "inputs": [
        {
          "indexed": true,
          "internalType": "uint256",
          "name": "orderId",
          "type": "uint256"
        },
        {
          "indexed": false,
          "internalType": "address",
          "name": "seller",
          "type": "address"
        },
        {
          "indexed": true,
          "internalType": "address",
          "name": "buyer",
          "type": "address"
        },
        {
          "indexed": true,
          "internalType": "address",
          "name": "quoteToken",
          "type": "address"
        },
        {
          "indexed": false,
          "internalType": "uint256",
          "name": "price",
          "type": "uint256"
        }
      ],
      "name": "OrderFilled",
      "type": "event"
    },
    {
      "anonymous": false,
      "inputs": [
        {
          "indexed": true,
          "internalType": "address",
          "name": "previousOwner",
          "type": "address"
        },
        {
          "indexed": true,
          "internalType": "address",
          "name": "newOwner",
          "type": "address"
        }
      ],
      "name": "OwnershipTransferred",
      "type": "event"
    },
    {
      "inputs": [
        {
          "internalType": "uint256",
          "name": "_orderId",
          "type": "uint256"
        },
        {
          "internalType": "uint256",
          "name": "_value",
          "type": "uint256"
        }
      ],
      "name": "bidOrder",
      "outputs": [],
      "stateMutability": "nonpayable",
      "type": "function"
    },
    {
      "inputs": [
        {
          "internalType": "uint256",
          "name": "_orderId",
          "type": "uint256"
        }
      ],
      "name": "cancelOrder",
      "outputs": [],
      "stateMutability": "nonpayable",
      "type": "function"
    },
    {
      "inputs": [
        {
          "internalType": "uint256",
          "name": "_tokenId",
          "type": "uint256"
        },
        {
          "internalType": "address",
          "name": "_quoteToken",
          "type": "address"
        },
        {
          "internalType": "uint256",
          "name": "_minPrice",
          "type": "uint256"
        },
        {
          "internalType": "uint256",
          "name": "_endTime",
          "type": "uint256"
        }
      ],
      "name": "createOrder",
      "outputs": [],
      "stateMutability": "nonpayable",
      "type": "function"
    },
    {
      "inputs": [],
      "name": "getCollectionAddress",
      "outputs": [
        {
          "internalType": "address",
          "name": "",
          "type": "address"
        }
      ],
      "stateMutability": "view",
      "type": "function"
    },
    {
      "inputs": [],
      "name": "getIncrement",
      "outputs": [
        {
          "internalType": "uint256",
          "name": "",
          "type": "uint256"
        }
      ],
      "stateMutability": "view",
      "type": "function"
    },
    {
      "inputs": [],
      "name": "getOpenOrderLength",
      "outputs": [
        {
          "internalType": "uint256",
          "name": "",
          "type": "uint256"
        }
      ],
      "stateMutability": "view",
      "type": "function"
    },
    {
      "inputs": [
        {
          "internalType": "uint256",
          "name": "_orderId",
          "type": "uint256"
        }
      ],
      "name": "getOrderById",
      "outputs": [
        {
          "components": [
            {
              "internalType": "uint256",
              "name": "orderId",
              "type": "uint256"
            },
            {
              "internalType": "uint256",
              "name": "orderState",
              "type": "uint256"
            },
            {
              "internalType": "uint256",
              "name": "tokenId",
              "type": "uint256"
            },
            {
              "internalType": "address",
              "name": "quoteToken",
              "type": "address"
            },
            {
              "internalType": "uint256",
              "name": "minPrice",
              "type": "uint256"
            },
            {
              "internalType": "uint256",
              "name": "endTime",
              "type": "uint256"
            },
            {
              "internalType": "address",
              "name": "seller",
              "type": "address"
            },
            {
              "internalType": "address",
              "name": "buyer",
              "type": "address"
            },
            {
              "internalType": "uint256",
              "name": "bids",
              "type": "uint256"
            },
            {
              "internalType": "address",
              "name": "lastBidder",
              "type": "address"
            },
            {
              "internalType": "uint256",
              "name": "lastBid",
              "type": "uint256"
            },
            {
              "internalType": "uint256",
              "name": "createTime",
              "type": "uint256"
            },
            {
              "internalType": "uint256",
              "name": "updateTime",
              "type": "uint256"
            }
          ],
          "internalType": "struct OrderInfo",
          "name": "",
          "type": "tuple"
        }
      ],
      "stateMutability": "view",
      "type": "function"
    },
    {
      "inputs": [],
      "name": "getOrderLength",
      "outputs": [
        {
          "internalType": "uint256",
          "name": "",
          "type": "uint256"
        }
      ],
      "stateMutability": "view",
      "type": "function"
    },
    {
      "inputs": [],
      "name": "owner",
      "outputs": [
        {
          "internalType": "address",
          "name": "",
          "type": "address"
        }
      ],
      "stateMutability": "view",
      "type": "function"
    },
    {
      "inputs": [],
      "name": "renounceOwnership",
      "outputs": [],
      "stateMutability": "nonpayable",
      "type": "function"
    },
    {
      "inputs": [
        {
          "internalType": "address",
          "name": "_collection",
          "type": "address"
        }
      ],
      "name": "setCollection",
      "outputs": [],
      "stateMutability": "nonpayable",
      "type": "function"
    },
    {
      "inputs": [
        {
          "internalType": "uint256",
          "name": "_value",
          "type": "uint256"
        }
      ],
      "name": "setIncrement",
      "outputs": [],
      "stateMutability": "nonpayable",
      "type": "function"
    },
    {
      "inputs": [
        {
          "internalType": "uint256",
          "name": "_orderId",
          "type": "uint256"
        }
      ],
      "name": "settleOrder",
      "outputs": [],
      "stateMutability": "nonpayable",
      "type": "function"
    },
    {
      "inputs": [
        {
          "internalType": "address",
          "name": "newOwner",
          "type": "address"
        }
      ],
      "name": "transferOwnership",
      "outputs": [],
      "stateMutability": "nonpayable",
      "type": "function"
    }
  ],
  "bytecode": "0x608060405260646007553480156200001657600080fd5b506040516200332a3803806200332a83398181016040528101906200003c9190620001e1565b6200005c62000050620000ab60201b60201c565b620000b360201b60201c565b6001808190555080600560006101000a81548173ffffffffffffffffffffffffffffffffffffffff021916908373ffffffffffffffffffffffffffffffffffffffff1602179055505062000213565b600033905090565b60008060009054906101000a900473ffffffffffffffffffffffffffffffffffffffff169050816000806101000a81548173ffffffffffffffffffffffffffffffffffffffff021916908373ffffffffffffffffffffffffffffffffffffffff1602179055508173ffffffffffffffffffffffffffffffffffffffff168173ffffffffffffffffffffffffffffffffffffffff167f8be0079c531659141344cd1fd0a4f28419497f9722a3daafe3b4186f6b6457e060405160405180910390a35050565b600080fd5b600073ffffffffffffffffffffffffffffffffffffffff82169050919050565b6000620001a9826200017c565b9050919050565b620001bb816200019c565b8114620001c757600080fd5b50565b600081519050620001db81620001b0565b92915050565b600060208284031215620001fa57620001f962000177565b5b60006200020a84828501620001ca565b91505092915050565b61310780620002236000396000f3fe608060405234801561001057600080fd5b50600436106100ea5760003560e01c80639d4971b71161008c578063b858fb5f11610066578063b858fb5f14610211578063c9bf2e291461022d578063ddf3fc1a1461024b578063f2fde38b14610267576100ea565b80639d4971b7146101b9578063b0276c9e146101d7578063b50e801d146101f5576100ea565b80636ac4691f116100c85780636ac4691f14610157578063715018a614610175578063768b5fd51461017f5780638da5cb5b1461019b576100ea565b8063328efc47146100ef57806342b50a7a1461010b578063514fcac71461013b575b600080fd5b61010960048036038101906101049190612229565b610283565b005b61012560048036038101906101209190612290565b61037a565b60405161013291906123e6565b60405180910390f35b61015560048036038101906101509190612290565b610569565b005b61015f610788565b60405161016c9190612411565b60405180910390f35b61017d610792565b005b6101996004803603810190610194919061242c565b61081a565b005b6101a36108da565b6040516101b09190612468565b60405180910390f35b6101c1610903565b6040516101ce9190612411565b60405180910390f35b6101df610910565b6040516101ec9190612411565b60405180910390f35b61020f600480360381019061020a9190612290565b61091d565b005b61022b60048036038101906102269190612483565b610c11565b005b610235610e90565b6040516102429190612468565b60405180910390f35b61026560048036038101906102609190612290565b610eba565b005b610281600480360381019061027c919061242c565b610f40565b005b600082116102c6576040517f08c379a00000000000000000000000000000000000000000000000000000000081526004016102bd90612546565b60405180910390fd5b428111610308576040517f08c379a00000000000000000000000000000000000000000000000000000000081526004016102ff906125b2565b60405180910390fd5b600061031685858585611038565b90508373ffffffffffffffffffffffffffffffffffffffff1685827f30c0986ab9a573188b591d94f4f918cdafc0249d2f2430dcc0d6c9efe1978fb761035a6113a6565b878760405161036b939291906125d2565b60405180910390a45050505050565b6103826120d0565b6002828154811061039657610395612609565b5b90600052602060002090600d0201604051806101a00160405290816000820154815260200160018201548152602001600282015481526020016003820160009054906101000a900473ffffffffffffffffffffffffffffffffffffffff1673ffffffffffffffffffffffffffffffffffffffff1673ffffffffffffffffffffffffffffffffffffffff16815260200160048201548152602001600582015481526020016006820160009054906101000a900473ffffffffffffffffffffffffffffffffffffffff1673ffffffffffffffffffffffffffffffffffffffff1673ffffffffffffffffffffffffffffffffffffffff1681526020016007820160009054906101000a900473ffffffffffffffffffffffffffffffffffffffff1673ffffffffffffffffffffffffffffffffffffffff1673ffffffffffffffffffffffffffffffffffffffff168152602001600882015481526020016009820160009054906101000a900473ffffffffffffffffffffffffffffffffffffffff1673ffffffffffffffffffffffffffffffffffffffff1673ffffffffffffffffffffffffffffffffffffffff168152602001600a8201548152602001600b8201548152602001600c820154815250509050919050565b60016002828154811061057f5761057e612609565b5b90600052602060002090600d020160010154146105d1576040517f08c379a00000000000000000000000000000000000000000000000000000000081526004016105c890612684565b60405180910390fd5b600281815481106105e5576105e4612609565b5b90600052602060002090600d020160060160009054906101000a900473ffffffffffffffffffffffffffffffffffffffff1673ffffffffffffffffffffffffffffffffffffffff166106356113a6565b73ffffffffffffffffffffffffffffffffffffffff161461068b576040517f08c379a000000000000000000000000000000000000000000000000000000000815260040161068290612716565b60405180910390fd5b6000600282815481106106a1576106a0612609565b5b90600052602060002090600d020160080154146106f3576040517f08c379a00000000000000000000000000000000000000000000000000000000081526004016106ea906127a8565b60405180910390fd5b6106fc816113ae565b600281815481106107105761070f612609565b5b90600052602060002090600d020160060160009054906101000a900473ffffffffffffffffffffffffffffffffffffffff1673ffffffffffffffffffffffffffffffffffffffff16817f9384174c8517f5537b08e79211fc039e8a098571a3a2b4cb21dfa6f3237e8de160405160405180910390a350565b6000600654905090565b61079a6113a6565b73ffffffffffffffffffffffffffffffffffffffff166107b86108da565b73ffffffffffffffffffffffffffffffffffffffff161461080e576040517f08c379a000000000000000000000000000000000000000000000000000000000815260040161080590612814565b60405180910390fd5b61081860006115d1565b565b6108226113a6565b73ffffffffffffffffffffffffffffffffffffffff166108406108da565b73ffffffffffffffffffffffffffffffffffffffff1614610896576040517f08c379a000000000000000000000000000000000000000000000000000000000815260040161088d90612814565b60405180910390fd5b80600560006101000a81548173ffffffffffffffffffffffffffffffffffffffff021916908373ffffffffffffffffffffffffffffffffffffffff16021790555050565b60008060009054906101000a900473ffffffffffffffffffffffffffffffffffffffff16905090565b6000600280549050905090565b6000600380549050905090565b60026001541415610963576040517f08c379a000000000000000000000000000000000000000000000000000000000815260040161095a90612880565b60405180910390fd5b600260018190555060016002828154811061098157610980612609565b5b90600052602060002090600d020160010154146109d3576040517f08c379a00000000000000000000000000000000000000000000000000000000081526004016109ca906128ec565b60405180910390fd5b42600282815481106109e8576109e7612609565b5b90600052602060002090600d02016005015410610a3a576040517f08c379a0000000000000000000000000000000000000000000000000000000008152600401610a319061297e565b60405180910390fd5b600060028281548110610a5057610a4f612609565b5b90600052602060002090600d02016008015411610aa2576040517f08c379a0000000000000000000000000000000000000000000000000000000008152600401610a9990612a10565b60405180910390fd5b610aab81611695565b60028181548110610abf57610abe612609565b5b90600052602060002090600d020160030160009054906101000a900473ffffffffffffffffffffffffffffffffffffffff1673ffffffffffffffffffffffffffffffffffffffff1660028281548110610b1b57610b1a612609565b5b90600052602060002090600d020160070160009054906101000a900473ffffffffffffffffffffffffffffffffffffffff1673ffffffffffffffffffffffffffffffffffffffff16827f0b3100898c420db6ddf2516111b9b2cfe3d82499e35356a85cbca4df2362af1d60028581548110610b9957610b98612609565b5b90600052602060002090600d020160060160009054906101000a900473ffffffffffffffffffffffffffffffffffffffff1660028681548110610bdf57610bde612609565b5b90600052602060002090600d0201600a0154604051610bff929190612a30565b60405180910390a46001808190555050565b60026001541415610c57576040517f08c379a0000000000000000000000000000000000000000000000000000000008152600401610c4e90612880565b60405180910390fd5b6002600181905550600160028381548110610c7557610c74612609565b5b90600052602060002090600d02016001015414610cc7576040517f08c379a0000000000000000000000000000000000000000000000000000000008152600401610cbe90612aa5565b60405180910390fd5b4260028381548110610cdc57610cdb612609565b5b90600052602060002090600d02016005015411610d2e576040517f08c379a0000000000000000000000000000000000000000000000000000000008152600401610d2590612b11565b60405180910390fd5b60028281548110610d4257610d41612609565b5b90600052602060002090600d020160040154811015610d96576040517f08c379a0000000000000000000000000000000000000000000000000000000008152600401610d8d90612b7d565b60405180910390fd5b600754600654600754610da99190612bcc565b60028481548110610dbd57610dbc612609565b5b90600052602060002090600d0201600a0154610dd99190612c22565b610de39190612cab565b811015610e25576040517f08c379a0000000000000000000000000000000000000000000000000000000008152600401610e1c90612b7d565b60405180910390fd5b610e2f8282611b0a565b610e376113a6565b73ffffffffffffffffffffffffffffffffffffffff16827f43c168f1d9d74d73325ab680f380bc731699766781190d47b123572b01b2fa2883604051610e7d9190612411565b60405180910390a3600180819055505050565b6000600560009054906101000a900473ffffffffffffffffffffffffffffffffffffffff16905090565b610ec26113a6565b73ffffffffffffffffffffffffffffffffffffffff16610ee06108da565b73ffffffffffffffffffffffffffffffffffffffff1614610f36576040517f08c379a0000000000000000000000000000000000000000000000000000000008152600401610f2d90612814565b60405180910390fd5b8060068190555050565b610f486113a6565b73ffffffffffffffffffffffffffffffffffffffff16610f666108da565b73ffffffffffffffffffffffffffffffffffffffff1614610fbc576040517f08c379a0000000000000000000000000000000000000000000000000000000008152600401610fb390612814565b60405180910390fd5b600073ffffffffffffffffffffffffffffffffffffffff168173ffffffffffffffffffffffffffffffffffffffff16141561102c576040517f08c379a000000000000000000000000000000000000000000000000000000000815260040161102390612d4e565b60405180910390fd5b611035816115d1565b50565b6000600560009054906101000a900473ffffffffffffffffffffffffffffffffffffffff1673ffffffffffffffffffffffffffffffffffffffff166323b872dd6110806113a6565b30886040518463ffffffff1660e01b81526004016110a093929190612d6e565b600060405180830381600087803b1580156110ba57600080fd5b505af11580156110ce573d6000803e3d6000fd5b505050506110da6120d0565b60028054905081600001818152505060018160200181815250508581604001818152505084816060019073ffffffffffffffffffffffffffffffffffffffff16908173ffffffffffffffffffffffffffffffffffffffff168152505083816080018181525050828160a00181815250506111526113a6565b8160c0019073ffffffffffffffffffffffffffffffffffffffff16908173ffffffffffffffffffffffffffffffffffffffff16815250504281610160018181525050428161018001818152505060028190806001815401808255809150506001900390600052602060002090600d020160009091909190915060008201518160000155602082015181600101556040820151816002015560608201518160030160006101000a81548173ffffffffffffffffffffffffffffffffffffffff021916908373ffffffffffffffffffffffffffffffffffffffff1602179055506080820151816004015560a0820151816005015560c08201518160060160006101000a81548173ffffffffffffffffffffffffffffffffffffffff021916908373ffffffffffffffffffffffffffffffffffffffff16021790555060e08201518160070160006101000a81548173ffffffffffffffffffffffffffffffffffffffff021916908373ffffffffffffffffffffffffffffffffffffffff16021790555061010082015181600801556101208201518160090160006101000a81548173ffffffffffffffffffffffffffffffffffffffff021916908373ffffffffffffffffffffffffffffffffffffffff16021790555061014082015181600a015561016082015181600b015561018082015181600c015550506003805490506004600083600001518152602001908152602001600020819055506003816000015190806001815401808255809150506001900390600052602060002001600090919091909150558060000151915050949350505050565b600033905090565b600560009054906101000a900473ffffffffffffffffffffffffffffffffffffffff1673ffffffffffffffffffffffffffffffffffffffff166342842e0e306113f56113a6565b6002858154811061140957611408612609565b5b90600052602060002090600d0201600201546040518463ffffffff1660e01b815260040161143993929190612d6e565b600060405180830381600087803b15801561145357600080fd5b505af1158015611467573d6000803e3d6000fd5b5050505060036002828154811061148157611480612609565b5b90600052602060002090600d02016001018190555042600282815481106114ab576114aa612609565b5b90600052602060002090600d0201600c018190555060016003805490506114d29190612da5565b60046000838152602001908152602001600020541461158d57600060046000838152602001908152602001600020549050600360016003805490506115179190612da5565b8154811061152857611527612609565b5b90600052602060002001546003828154811061154757611546612609565b5b906000526020600020018190555080600460006003848154811061156e5761156d612609565b5b9060005260206000200154815260200190815260200160002081905550505b6000600460008381526020019081526020016000208190555060038054806115b8576115b7612dd9565b5b6001900381819060005260206000200160009055905550565b60008060009054906101000a900473ffffffffffffffffffffffffffffffffffffffff169050816000806101000a81548173ffffffffffffffffffffffffffffffffffffffff021916908373ffffffffffffffffffffffffffffffffffffffff1602179055508173ffffffffffffffffffffffffffffffffffffffff168173ffffffffffffffffffffffffffffffffffffffff167f8be0079c531659141344cd1fd0a4f28419497f9722a3daafe3b4186f6b6457e060405160405180910390a35050565b600281815481106116a9576116a8612609565b5b90600052602060002090600d020160030160009054906101000a900473ffffffffffffffffffffffffffffffffffffffff1673ffffffffffffffffffffffffffffffffffffffff1663a9059cbb6002838154811061170a57611709612609565b5b90600052602060002090600d020160060160009054906101000a900473ffffffffffffffffffffffffffffffffffffffff16600284815481106117505761174f612609565b5b90600052602060002090600d0201600a01546040518363ffffffff1660e01b815260040161177f929190612a30565b6020604051808303816000875af115801561179e573d6000803e3d6000fd5b505050506040513d601f19601f820116820180604052508101906117c29190612e40565b611801576040517f08c379a00000000000000000000000000000000000000000000000000000000081526004016117f890612edf565b60405180910390fd5b600560009054906101000a900473ffffffffffffffffffffffffffffffffffffffff1673ffffffffffffffffffffffffffffffffffffffff166342842e0e306002848154811061185457611853612609565b5b90600052602060002090600d020160090160009054906101000a900473ffffffffffffffffffffffffffffffffffffffff166002858154811061189a57611899612609565b5b90600052602060002090600d0201600201546040518463ffffffff1660e01b81526004016118ca93929190612d6e565b600060405180830381600087803b1580156118e457600080fd5b505af11580156118f8573d6000803e3d6000fd5b50505050600280828154811061191157611910612609565b5b90600052602060002090600d0201600101819055506002818154811061193a57611939612609565b5b90600052602060002090600d020160090160009054906101000a900473ffffffffffffffffffffffffffffffffffffffff16600282815481106119805761197f612609565b5b90600052602060002090600d020160070160006101000a81548173ffffffffffffffffffffffffffffffffffffffff021916908373ffffffffffffffffffffffffffffffffffffffff16021790555042600282815481106119e4576119e3612609565b5b90600052602060002090600d0201600c01819055506001600380549050611a0b9190612da5565b600460008381526020019081526020016000205414611ac65760006004600083815260200190815260200160002054905060036001600380549050611a509190612da5565b81548110611a6157611a60612609565b5b906000526020600020015460038281548110611a8057611a7f612609565b5b9060005260206000200181905550806004600060038481548110611aa757611aa6612609565b5b9060005260206000200154815260200190815260200160002081905550505b600060046000838152602001908152602001600020819055506003805480611af157611af0612dd9565b5b6001900381819060005260206000200160009055905550565b600060028381548110611b2057611b1f612609565b5b90600052602060002090600d020160030160009054906101000a900473ffffffffffffffffffffffffffffffffffffffff1673ffffffffffffffffffffffffffffffffffffffff166370a08231306040518263ffffffff1660e01b8152600401611b8a9190612468565b602060405180830381865afa158015611ba7573d6000803e3d6000fd5b505050506040513d601f19601f82011682018060405250810190611bcb9190612f14565b905060028381548110611be157611be0612609565b5b90600052602060002090600d020160030160009054906101000a900473ffffffffffffffffffffffffffffffffffffffff1673ffffffffffffffffffffffffffffffffffffffff166323b872dd611c366113a6565b30856040518463ffffffff1660e01b8152600401611c5693929190612d6e565b6020604051808303816000875af1158015611c75573d6000803e3d6000fd5b505050506040513d601f19601f82011682018060405250810190611c999190612e40565b611cd8576040517f08c379a0000000000000000000000000000000000000000000000000000000008152600401611ccf90612fb3565b60405180910390fd5b600060028481548110611cee57611ced612609565b5b90600052602060002090600d020160030160009054906101000a900473ffffffffffffffffffffffffffffffffffffffff1673ffffffffffffffffffffffffffffffffffffffff166370a08231306040518263ffffffff1660e01b8152600401611d589190612468565b602060405180830381865afa158015611d75573d6000803e3d6000fd5b505050506040513d601f19601f82011682018060405250810190611d999190612f14565b9050828282611da89190612da5565b14611de8576040517f08c379a0000000000000000000000000000000000000000000000000000000008152600401611ddf90613045565b60405180910390fd5b600073ffffffffffffffffffffffffffffffffffffffff1660028581548110611e1457611e13612609565b5b90600052602060002090600d020160090160009054906101000a900473ffffffffffffffffffffffffffffffffffffffff1673ffffffffffffffffffffffffffffffffffffffff1614611fce5760028481548110611e7557611e74612609565b5b90600052602060002090600d020160030160009054906101000a900473ffffffffffffffffffffffffffffffffffffffff1673ffffffffffffffffffffffffffffffffffffffff1663a9059cbb60028681548110611ed657611ed5612609565b5b90600052602060002090600d020160090160009054906101000a900473ffffffffffffffffffffffffffffffffffffffff1660028781548110611f1c57611f1b612609565b5b90600052602060002090600d0201600a01546040518363ffffffff1660e01b8152600401611f4b929190612a30565b6020604051808303816000875af1158015611f6a573d6000803e3d6000fd5b505050506040513d601f19601f82011682018060405250810190611f8e9190612e40565b611fcd576040517f08c379a0000000000000000000000000000000000000000000000000000000008152600401611fc4906130b1565b60405180910390fd5b5b611fd66113a6565b60028581548110611fea57611fe9612609565b5b90600052602060002090600d020160090160006101000a81548173ffffffffffffffffffffffffffffffffffffffff021916908373ffffffffffffffffffffffffffffffffffffffff160217905550826002858154811061204e5761204d612609565b5b90600052602060002090600d0201600a018190555060016002858154811061207957612078612609565b5b90600052602060002090600d020160080160008282546120999190612bcc565b9250508190555042600285815481106120b5576120b4612609565b5b90600052602060002090600d0201600c018190555050505050565b604051806101a00160405280600081526020016000815260200160008152602001600073ffffffffffffffffffffffffffffffffffffffff1681526020016000815260200160008152602001600073ffffffffffffffffffffffffffffffffffffffff168152602001600073ffffffffffffffffffffffffffffffffffffffff16815260200160008152602001600073ffffffffffffffffffffffffffffffffffffffff1681526020016000815260200160008152602001600081525090565b600080fd5b6000819050919050565b6121a881612195565b81146121b357600080fd5b50565b6000813590506121c58161219f565b92915050565b600073ffffffffffffffffffffffffffffffffffffffff82169050919050565b60006121f6826121cb565b9050919050565b612206816121eb565b811461221157600080fd5b50565b600081359050612223816121fd565b92915050565b6000806000806080858703121561224357612242612190565b5b6000612251878288016121b6565b945050602061226287828801612214565b9350506040612273878288016121b6565b9250506060612284878288016121b6565b91505092959194509250565b6000602082840312156122a6576122a5612190565b5b60006122b4848285016121b6565b91505092915050565b6122c681612195565b82525050565b6122d5816121eb565b82525050565b6101a0820160008201516122f260008501826122bd565b50602082015161230560208501826122bd565b50604082015161231860408501826122bd565b50606082015161232b60608501826122cc565b50608082015161233e60808501826122bd565b5060a082015161235160a08501826122bd565b5060c082015161236460c08501826122cc565b5060e082015161237760e08501826122cc565b5061010082015161238c6101008501826122bd565b506101208201516123a16101208501826122cc565b506101408201516123b66101408501826122bd565b506101608201516123cb6101608501826122bd565b506101808201516123e06101808501826122bd565b50505050565b60006101a0820190506123fc60008301846122db565b92915050565b61240b81612195565b82525050565b60006020820190506124266000830184612402565b92915050565b60006020828403121561244257612441612190565b5b600061245084828501612214565b91505092915050565b612462816121eb565b82525050565b600060208201905061247d6000830184612459565b92915050565b6000806040838503121561249a57612499612190565b5b60006124a8858286016121b6565b92505060206124b9858286016121b6565b9150509250929050565b600082825260208201905092915050565b7f4f726465724372656174653a2070726963652063616e6e6f74206265207a657260008201527f6f00000000000000000000000000000000000000000000000000000000000000602082015250565b60006125306021836124c3565b915061253b826124d4565b604082019050919050565b6000602082019050818103600083015261255f81612523565b9050919050565b7f4f726465724372656174653a20656e642074696d6520697320696e76616c6964600082015250565b600061259c6020836124c3565b91506125a782612566565b602082019050919050565b600060208201905081810360008301526125cb8161258f565b9050919050565b60006060820190506125e76000830186612459565b6125f46020830185612402565b6126016040830184612402565b949350505050565b7f4e487b7100000000000000000000000000000000000000000000000000000000600052603260045260246000fd5b7f4f7264657243616e63656c3a20696e76616c6964206f72646572000000000000600082015250565b600061266e601a836124c3565b915061267982612638565b602082019050919050565b6000602082019050818103600083015261269d81612661565b9050919050565b7f4f7264657243616e63656c3a2063616c6c6572206973206e6f742073656c6c6560008201527f7200000000000000000000000000000000000000000000000000000000000000602082015250565b60006127006021836124c3565b915061270b826126a4565b604082019050919050565b6000602082019050818103600083015261272f816126f3565b9050919050565b7f4f7264657243616e63656c3a2061756374696f6e2068617320616c726561647960008201527f2073746172746564000000000000000000000000000000000000000000000000602082015250565b60006127926028836124c3565b915061279d82612736565b604082019050919050565b600060208201905081810360008301526127c181612785565b9050919050565b7f4f776e61626c653a2063616c6c6572206973206e6f7420746865206f776e6572600082015250565b60006127fe6020836124c3565b9150612809826127c8565b602082019050919050565b6000602082019050818103600083015261282d816127f1565b9050919050565b7f5265656e7472616e637947756172643a207265656e7472616e742063616c6c00600082015250565b600061286a601f836124c3565b915061287582612834565b602082019050919050565b600060208201905081810360008301526128998161285d565b9050919050565b7f4f72646572536574746c653a20696e76616c6964206f72646572000000000000600082015250565b60006128d6601a836124c3565b91506128e1826128a0565b602082019050919050565b60006020820190508181036000830152612905816128c9565b9050919050565b7f4f72646572536574746c653a2061756374696f6e206973206e6f74206578706960008201527f7265640000000000000000000000000000000000000000000000000000000000602082015250565b60006129686023836124c3565b91506129738261290c565b604082019050919050565b600060208201905081810360008301526129978161295b565b9050919050565b7f4f72646572536574746c653a2061756374696f6e20686173206e6f742073746160008201527f7274656400000000000000000000000000000000000000000000000000000000602082015250565b60006129fa6024836124c3565b9150612a058261299e565b604082019050919050565b60006020820190508181036000830152612a29816129ed565b9050919050565b6000604082019050612a456000830185612459565b612a526020830184612402565b9392505050565b7f4f726465724269643a20696e76616c6964206f72646572000000000000000000600082015250565b6000612a8f6017836124c3565b9150612a9a82612a59565b602082019050919050565b60006020820190508181036000830152612abe81612a82565b9050919050565b7f4f726465724269643a2061756374696f6e206578706972656400000000000000600082015250565b6000612afb6019836124c3565b9150612b0682612ac5565b602082019050919050565b60006020820190508181036000830152612b2a81612aee565b9050919050565b7f4f726465724269643a20696e76616c6964206269640000000000000000000000600082015250565b6000612b676015836124c3565b9150612b7282612b31565b602082019050919050565b60006020820190508181036000830152612b9681612b5a565b9050919050565b7f4e487b7100000000000000000000000000000000000000000000000000000000600052601160045260246000fd5b6000612bd782612195565b9150612be283612195565b9250827fffffffffffffffffffffffffffffffffffffffffffffffffffffffffffffffff03821115612c1757612c16612b9d565b5b828201905092915050565b6000612c2d82612195565b9150612c3883612195565b9250817fffffffffffffffffffffffffffffffffffffffffffffffffffffffffffffffff0483118215151615612c7157612c70612b9d565b5b828202905092915050565b7f4e487b7100000000000000000000000000000000000000000000000000000000600052601260045260246000fd5b6000612cb682612195565b9150612cc183612195565b925082612cd157612cd0612c7c565b5b828204905092915050565b7f4f776e61626c653a206e6577206f776e657220697320746865207a65726f206160008201527f6464726573730000000000000000000000000000000000000000000000000000602082015250565b6000612d386026836124c3565b9150612d4382612cdc565b604082019050919050565b60006020820190508181036000830152612d6781612d2b565b9050919050565b6000606082019050612d836000830186612459565b612d906020830185612459565b612d9d6040830184612402565b949350505050565b6000612db082612195565b9150612dbb83612195565b925082821015612dce57612dcd612b9d565b5b828203905092915050565b7f4e487b7100000000000000000000000000000000000000000000000000000000600052603160045260246000fd5b60008115159050919050565b612e1d81612e08565b8114612e2857600080fd5b50565b600081519050612e3a81612e14565b92915050565b600060208284031215612e5657612e55612190565b5b6000612e6484828501612e2b565b91505092915050565b7f4f72646572536574746c653a207472616e7366657220746f6b656e732066616960008201527f6c65640000000000000000000000000000000000000000000000000000000000602082015250565b6000612ec96023836124c3565b9150612ed482612e6d565b604082019050919050565b60006020820190508181036000830152612ef881612ebc565b9050919050565b600081519050612f0e8161219f565b92915050565b600060208284031215612f2a57612f29612190565b5b6000612f3884828501612eff565b91505092915050565b7f4f726465724269643a207472616e736665722071756f746520746f6b656e206660008201527f61696c6564000000000000000000000000000000000000000000000000000000602082015250565b6000612f9d6025836124c3565b9150612fa882612f41565b604082019050919050565b60006020820190508181036000830152612fcc81612f90565b9050919050565b7f4f726465724269643a206e6f6e2d7374616e6461726420455243323020746f6b60008201527f656e20756e737570706f72746564000000000000000000000000000000000000602082015250565b600061302f602e836124c3565b915061303a82612fd3565b604082019050919050565b6000602082019050818103600083015261305e81613022565b9050919050565b7f4f726465724269643a207472616e7366657220726566756e64206661696c6564600082015250565b600061309b6020836124c3565b91506130a682613065565b602082019050919050565b600060208201905081810360008301526130ca8161308e565b905091905056fea26469706673582212202ecd4850932e14b3a3a3c9a7a45791dedbf5cb5ac6b947441ffbd41bc2eecda164736f6c634300080c0033",
  "linkReferences": {},
  "deployedLinkReferences": {}
}